{
  "_format": "hh-sol-artifact-1",
  "contractName": "NFTmarket",
  "sourceName": "contracts/NFTmarket.sol",
  "abi": [
    {
      "inputs": [],
      "stateMutability": "nonpayable",
      "type": "constructor"
    },
    {
      "anonymous": false,
      "inputs": [
        {
          "indexed": false,
          "internalType": "address",
          "name": "_contract",
          "type": "address"
        },
        {
          "indexed": false,
          "internalType": "uint256",
          "name": "_tokenId",
          "type": "uint256"
        },
        {
          "indexed": false,
          "internalType": "uint256",
          "name": "_price",
          "type": "uint256"
        }
      ],
      "name": "NFTDepositEvent",
      "type": "event"
    },
    {
      "anonymous": false,
      "inputs": [
        {
          "indexed": false,
          "internalType": "uint256",
          "name": "_nftId",
          "type": "uint256"
        },
        {
          "indexed": false,
          "internalType": "uint256",
          "name": "_price",
          "type": "uint256"
        },
        {
          "indexed": false,
          "internalType": "uint256",
          "name": "_endTime",
          "type": "uint256"
        }
      ],
      "name": "newOfferEvent",
      "type": "event"
    },
    {
      "inputs": [
        {
          "internalType": "uint256",
          "name": "_nftId",
          "type": "uint256"
        },
        {
          "internalType": "uint256",
          "name": "_offerId",
          "type": "uint256"
        }
      ],
      "name": "acceptOffer",
      "outputs": [],
      "stateMutability": "nonpayable",
      "type": "function"
    },
    {
      "inputs": [
        {
          "internalType": "address",
          "name": "_contract",
          "type": "address"
        },
        {
          "internalType": "uint256",
          "name": "_tokenId",
          "type": "uint256"
        },
        {
          "internalType": "uint256",
          "name": "_price",
          "type": "uint256"
        }
      ],
      "name": "depositNFT",
      "outputs": [
        {
          "internalType": "uint256",
          "name": "",
          "type": "uint256"
        }
      ],
      "stateMutability": "nonpayable",
      "type": "function"
    },
    {
      "inputs": [
        {
          "internalType": "uint256",
          "name": "id",
          "type": "uint256"
        }
      ],
      "name": "getNFTById",
      "outputs": [
        {
          "components": [
            {
              "internalType": "uint256",
              "name": "nftId",
              "type": "uint256"
            },
            {
              "internalType": "address",
              "name": "contractAddr",
              "type": "address"
            },
            {
              "internalType": "uint256",
              "name": "tokenId",
              "type": "uint256"
            },
            {
              "internalType": "uint256",
              "name": "price",
              "type": "uint256"
            },
            {
              "internalType": "address",
              "name": "owner",
              "type": "address"
            },
            {
              "internalType": "bool",
              "name": "listed",
              "type": "bool"
            }
          ],
          "internalType": "struct NFTmarket.NFT",
          "name": "",
          "type": "tuple"
        }
      ],
      "stateMutability": "view",
      "type": "function"
    },
    {
      "inputs": [
        {
          "internalType": "uint256",
          "name": "_nftId",
          "type": "uint256"
        }
      ],
      "name": "getOffersByNFT",
      "outputs": [
        {
          "components": [
            {
              "internalType": "uint256",
              "name": "offerId",
              "type": "uint256"
            },
            {
              "internalType": "address payable",
              "name": "from",
              "type": "address"
            },
            {
              "internalType": "uint256",
              "name": "nftId",
              "type": "uint256"
            },
            {
              "internalType": "uint256",
              "name": "price",
              "type": "uint256"
            },
            {
              "internalType": "uint256",
              "name": "endTime",
              "type": "uint256"
            }
          ],
          "internalType": "struct NFTmarket.Offer[]",
          "name": "",
          "type": "tuple[]"
        }
      ],
      "stateMutability": "view",
      "type": "function"
    },
    {
      "inputs": [
        {
          "internalType": "uint256",
          "name": "_nftId",
          "type": "uint256"
        },
        {
          "internalType": "uint256",
          "name": "_price",
          "type": "uint256"
        },
        {
          "internalType": "uint256",
          "name": "_endTime",
          "type": "uint256"
        }
      ],
      "name": "newOffer",
      "outputs": [],
      "stateMutability": "payable",
      "type": "function"
    }
  ],
  "bytecode": "0x608060405234801561001057600080fd5b5033600560006101000a81548173ffffffffffffffffffffffffffffffffffffffff021916908373ffffffffffffffffffffffffffffffffffffffff1602179055506116ec806100616000396000f3fe60806040526004361061004a5760003560e01c806339aec9c91461004f57806372a8ccb41461008c57806381257bd5146100c957806392ee2169146100f2578063a168b8051461010e575b600080fd5b34801561005b57600080fd5b5061007660048036038101906100719190611012565b61014b565b60405161008391906113ab565b60405180910390f35b34801561009857600080fd5b506100b360048036038101906100ae9190610fc3565b61037c565b6040516100c09190611468565b60405180910390f35b3480156100d557600080fd5b506100f060048036038101906100eb919061103b565b61058c565b005b61010c60048036038101906101079190611077565b61074e565b005b34801561011a57600080fd5b5061013560048036038101906101309190611012565b610996565b604051610142919061144d565b60405180910390f35b60606000600360008481526020019081526020016000208054806020026020016040519081016040528092919081815260200182805480156101ac57602002820191906000526020600020905b815481526020019060010190808311610198575b505050505090506000815167ffffffffffffffff8111156101f6577f4e487b7100000000000000000000000000000000000000000000000000000000600052604160045260246000fd5b60405190808252806020026020018201604052801561022f57816020015b61021c610eb2565b8152602001906001900390816102145790505b50905060005b8251811015610371576002600084838151811061027b577f4e487b7100000000000000000000000000000000000000000000000000000000600052603260045260246000fd5b602002602001015181526020019081526020016000206040518060a0016040529081600082015481526020016001820160009054906101000a900473ffffffffffffffffffffffffffffffffffffffff1673ffffffffffffffffffffffffffffffffffffffff1673ffffffffffffffffffffffffffffffffffffffff1681526020016002820154815260200160038201548152602001600482015481525050828281518110610353577f4e487b7100000000000000000000000000000000000000000000000000000000600052603260045260246000fd5b6020026020010181905250808061036990611569565b915050610235565b508092505050919050565b60006006600081548092919061039190611569565b91905055506040518060c0016040528060065481526020018573ffffffffffffffffffffffffffffffffffffffff1681526020018481526020018381526020013373ffffffffffffffffffffffffffffffffffffffff1681526020016001151581525060008060065481526020019081526020016000206000820151816000015560208201518160010160006101000a81548173ffffffffffffffffffffffffffffffffffffffff021916908373ffffffffffffffffffffffffffffffffffffffff160217905550604082015181600201556060820151816003015560808201518160040160006101000a81548173ffffffffffffffffffffffffffffffffffffffff021916908373ffffffffffffffffffffffffffffffffffffffff16021790555060a08201518160040160146101000a81548160ff0219169083151502179055509050506000600160003373ffffffffffffffffffffffffffffffffffffffff1673ffffffffffffffffffffffffffffffffffffffff16815260200190815260200160002090508060065490806001815401808255809150506001900390600052602060002001600090919091909150557fdf8ec4971d7ac4ca9d98c03681d4318c60dc250b74f25a66f5ea640a488008a185858560405161057793929190611374565b60405180910390a16006549150509392505050565b6000806000848152602001908152602001600020905060008160010160009054906101000a900473ffffffffffffffffffffffffffffffffffffffff1690503373ffffffffffffffffffffffffffffffffffffffff168173ffffffffffffffffffffffffffffffffffffffff16636352211e84600201546040518263ffffffff1660e01b815260040161061f9190611468565b60206040518083038186803b15801561063757600080fd5b505afa15801561064b573d6000803e3d6000fd5b505050506040513d601f19601f8201168201806040525081019061066f9190610f9a565b73ffffffffffffffffffffffffffffffffffffffff16146106c5576040517f08c379a00000000000000000000000000000000000000000000000000000000081526004016106bc9061140d565b60405180910390fd5b61071c846002600086815260200190815260200160002060010160009054906101000a900473ffffffffffffffffffffffffffffffffffffffff166002600087815260200190815260200160002060030154610aa7565b6107268484610c75565b6000600260008581526020019081526020016000209050600081600401819055505050505050565b813414610790576040517f08c379a0000000000000000000000000000000000000000000000000000000008152600401610787906113ed565b60405180910390fd5b6000808481526020019081526020016000206003015482106107c7576107b7833384610aa7565b6107c2836000610c75565b610991565b600760008154809291906107da90611569565b91905055506040518060a0016040528060075481526020013373ffffffffffffffffffffffffffffffffffffffff168152602001848152602001838152602001828152506002600060075481526020019081526020016000206000820151816000015560208201518160010160006101000a81548173ffffffffffffffffffffffffffffffffffffffff021916908373ffffffffffffffffffffffffffffffffffffffff1602179055506040820151816002015560608201518160030155608082015181600401559050506000600460003373ffffffffffffffffffffffffffffffffffffffff1673ffffffffffffffffffffffffffffffffffffffff168152602001908152602001600020905080600754908060018154018082558091505060019003906000526020600020016000909190919091505560006003600086815260200190815260200160002090508060075490806001815401808255809150506001900390600052602060002001600090919091909150557fc6fcbc1667718aad05c0578f1b47c8939b0815c5cff44ef024b630ae16e8003a85858560405161098693929190611483565b60405180910390a150505b505050565b61099e610ef7565b6000808381526020019081526020016000206040518060c0016040529081600082015481526020016001820160009054906101000a900473ffffffffffffffffffffffffffffffffffffffff1673ffffffffffffffffffffffffffffffffffffffff1673ffffffffffffffffffffffffffffffffffffffff16815260200160028201548152602001600382015481526020016004820160009054906101000a900473ffffffffffffffffffffffffffffffffffffffff1673ffffffffffffffffffffffffffffffffffffffff1673ffffffffffffffffffffffffffffffffffffffff1681526020016004820160149054906101000a900460ff1615151515815250509050919050565b6000806000858152602001908152602001600020905060008160010160009054906101000a900473ffffffffffffffffffffffffffffffffffffffff1690506000808360040160009054906101000a900473ffffffffffffffffffffffffffffffffffffffff1673ffffffffffffffffffffffffffffffffffffffff1685604051610b3190611328565b60006040518083038185875af1925050503d8060008114610b6e576040519150601f19603f3d011682016040523d82523d6000602084013e610b73565b606091505b509150915081610bb8576040517f08c379a0000000000000000000000000000000000000000000000000000000008152600401610baf906113cd565b60405180910390fd5b8273ffffffffffffffffffffffffffffffffffffffff166342842e0e8560040160009054906101000a900473ffffffffffffffffffffffffffffffffffffffff168887600201546040518463ffffffff1660e01b8152600401610c1d9392919061133d565b600060405180830381600087803b158015610c3757600080fd5b505af1158015610c4b573d6000803e3d6000fd5b5050505060008460040160146101000a81548160ff02191690831515021790555050505050505050565b600060036000848152602001908152602001600020805480602002602001604051908101604052809291908181526020018280548015610cd457602002820191906000526020600020905b815481526020019060010190808311610cc0575b5050505050905060005b8151811015610eac576000831480610d59575060008314158015610d58575060026000838381518110610d3a577f4e487b7100000000000000000000000000000000000000000000000000000000600052603260045260246000fd5b60200260200101518152602001908152602001600020600001548314155b5b15610e9957600060026000848481518110610d9d577f4e487b7100000000000000000000000000000000000000000000000000000000600052603260045260246000fd5b6020026020010151815260200190815260200160002090506000808260010160009054906101000a900473ffffffffffffffffffffffffffffffffffffffff1673ffffffffffffffffffffffffffffffffffffffff168360030154604051610e0490611328565b60006040518083038185875af1925050503d8060008114610e41576040519150601f19603f3d011682016040523d82523d6000602084013e610e46565b606091505b509150915081610e8b576040517f08c379a0000000000000000000000000000000000000000000000000000000008152600401610e829061142d565b60405180910390fd5b600083600401819055505050505b8080610ea490611569565b915050610cde565b50505050565b6040518060a0016040528060008152602001600073ffffffffffffffffffffffffffffffffffffffff1681526020016000815260200160008152602001600081525090565b6040518060c0016040528060008152602001600073ffffffffffffffffffffffffffffffffffffffff1681526020016000815260200160008152602001600073ffffffffffffffffffffffffffffffffffffffff1681526020016000151581525090565b600081359050610f6a81611688565b92915050565b600081519050610f7f81611688565b92915050565b600081359050610f948161169f565b92915050565b600060208284031215610fac57600080fd5b6000610fba84828501610f70565b91505092915050565b600080600060608486031215610fd857600080fd5b6000610fe686828701610f5b565b9350506020610ff786828701610f85565b925050604061100886828701610f85565b9150509250925092565b60006020828403121561102457600080fd5b600061103284828501610f85565b91505092915050565b6000806040838503121561104e57600080fd5b600061105c85828601610f85565b925050602061106d85828601610f85565b9150509250929050565b60008060006060848603121561108c57600080fd5b600061109a86828701610f85565b93505060206110ab86828701610f85565b92505060406110bc86828701610f85565b9150509250925092565b60006110d283836112a2565b60a08301905092915050565b6110e781611521565b82525050565b6110f68161150f565b82525050565b6111058161150f565b82525050565b6000611116826114ca565b61112081856114e2565b935061112b836114ba565b8060005b8381101561115c57815161114388826110c6565b975061114e836114d5565b92505060018101905061112f565b5085935050505092915050565b61117281611533565b82525050565b6000611185601f836114fe565b9150611190826115e1565b602082019050919050565b60006111a86017836114fe565b91506111b38261160a565b602082019050919050565b60006111cb6017836114fe565b91506111d682611633565b602082019050919050565b60006111ee6000836114f3565b91506111f98261165c565b600082019050919050565b60006112116020836114fe565b915061121c8261165f565b602082019050919050565b60c08201600082015161123d600085018261130a565b50602082015161125060208501826110ed565b506040820151611263604085018261130a565b506060820151611276606085018261130a565b50608082015161128960808501826110ed565b5060a082015161129c60a0850182611169565b50505050565b60a0820160008201516112b8600085018261130a565b5060208201516112cb60208501826110de565b5060408201516112de604085018261130a565b5060608201516112f1606085018261130a565b506080820151611304608085018261130a565b50505050565b6113138161155f565b82525050565b6113228161155f565b82525050565b6000611333826111e1565b9150819050919050565b600060608201905061135260008301866110fc565b61135f60208301856110fc565b61136c6040830184611319565b949350505050565b600060608201905061138960008301866110fc565b6113966020830185611319565b6113a36040830184611319565b949350505050565b600060208201905081810360008301526113c5818461110b565b905092915050565b600060208201905081810360008301526113e681611178565b9050919050565b600060208201905081810360008301526114068161119b565b9050919050565b60006020820190508181036000830152611426816111be565b9050919050565b6000602082019050818103600083015261144681611204565b9050919050565b600060c0820190506114626000830184611227565b92915050565b600060208201905061147d6000830184611319565b92915050565b60006060820190506114986000830186611319565b6114a56020830185611319565b6114b26040830184611319565b949350505050565b6000819050602082019050919050565b600081519050919050565b6000602082019050919050565b600082825260208201905092915050565b600081905092915050565b600082825260208201905092915050565b600061151a8261153f565b9050919050565b600061152c8261153f565b9050919050565b60008115159050919050565b600073ffffffffffffffffffffffffffffffffffffffff82169050919050565b6000819050919050565b60006115748261155f565b91507fffffffffffffffffffffffffffffffffffffffffffffffffffffffffffffffff8214156115a7576115a66115b2565b5b600182019050919050565b7f4e487b7100000000000000000000000000000000000000000000000000000000600052601160045260246000fd5b7f6572726f7220696e20706169656d656e7420746f20204e4654206f776e657200600082015250565b7f6e6f7420656e6f7567682065746865722073656e646564000000000000000000600082015250565b7f796f75206861766520746f206f776e20746865204e4654000000000000000000600082015250565b50565b7f6572726f7220696e20726566756e6420756e6163636570746564206f66666572600082015250565b6116918161150f565b811461169c57600080fd5b50565b6116a88161155f565b81146116b357600080fd5b5056fea264697066735822122067f21ff4fa8034b523990d965951e30dc9b91bbadc4de288d88106739c861d8d64736f6c63430008010033",
  "linkReferences": {},
  "deployedLinkReferences": {}
}